{
  "contractName": "Vendor",
  "abi": [
    {
      "inputs": [],
      "stateMutability": "nonpayable",
      "type": "constructor"
    },
    {
      "anonymous": false,
      "inputs": [
        {
          "indexed": false,
          "internalType": "address",
          "name": "buyer",
          "type": "address"
        },
        {
          "indexed": false,
          "internalType": "uint256",
          "name": "amountOfEther",
          "type": "uint256"
        },
        {
          "indexed": false,
          "internalType": "uint256",
          "name": "amountOfTokens",
          "type": "uint256"
        }
      ],
      "name": "BuyTokens",
      "type": "event"
    },
    {
      "anonymous": false,
      "inputs": [
        {
          "indexed": true,
          "internalType": "address",
          "name": "previousOwner",
          "type": "address"
        },
        {
          "indexed": true,
          "internalType": "address",
          "name": "newOwner",
          "type": "address"
        }
      ],
      "name": "OwnershipTransferred",
      "type": "event"
    },
    {
      "stateMutability": "payable",
      "type": "fallback"
    },
    {
      "inputs": [],
      "name": "owner",
      "outputs": [
        {
          "internalType": "address",
          "name": "",
          "type": "address"
        }
      ],
      "stateMutability": "view",
      "type": "function"
    },
    {
      "inputs": [],
      "name": "renounceOwnership",
      "outputs": [],
      "stateMutability": "nonpayable",
      "type": "function"
    },
    {
      "inputs": [],
      "name": "tokensPerEther",
      "outputs": [
        {
          "internalType": "uint256",
          "name": "",
          "type": "uint256"
        }
      ],
      "stateMutability": "view",
      "type": "function"
    },
    {
      "inputs": [
        {
          "internalType": "address",
          "name": "newOwner",
          "type": "address"
        }
      ],
      "name": "transferOwnership",
      "outputs": [],
      "stateMutability": "nonpayable",
      "type": "function"
    },
    {
      "stateMutability": "payable",
      "type": "receive"
    },
    {
      "inputs": [
        {
          "internalType": "address",
          "name": "tokenAddress",
          "type": "address"
        }
      ],
      "name": "addToken",
      "outputs": [],
      "stateMutability": "nonpayable",
      "type": "function"
    },
    {
      "inputs": [],
      "name": "buyTokens",
      "outputs": [
        {
          "internalType": "uint256",
          "name": "tokenAmount",
          "type": "uint256"
        }
      ],
      "stateMutability": "payable",
      "type": "function"
    },
    {
      "inputs": [
        {
          "internalType": "uint256",
          "name": "tokenAmountToSell",
          "type": "uint256"
        }
      ],
      "name": "sellTokens",
      "outputs": [],
      "stateMutability": "nonpayable",
      "type": "function"
    },
    {
      "inputs": [],
      "name": "withdraw",
      "outputs": [],
      "stateMutability": "nonpayable",
      "type": "function"
    }
  ],
  "bytecode": "0x6080604052606460025534801561001557600080fd5b5061003261002761003760201b60201c565b61003f60201b60201c565b610103565b600033905090565b60008060009054906101000a900473ffffffffffffffffffffffffffffffffffffffff169050816000806101000a81548173ffffffffffffffffffffffffffffffffffffffff021916908373ffffffffffffffffffffffffffffffffffffffff1602179055508173ffffffffffffffffffffffffffffffffffffffff168173ffffffffffffffffffffffffffffffffffffffff167f8be0079c531659141344cd1fd0a4f28419497f9722a3daafe3b4186f6b6457e060405160405180910390a35050565b6113fe806101126000396000f3fe60806040526004361061007f5760003560e01c8063d0febe4c1161004e578063d0febe4c1461010a578063d48bfca714610128578063f2fde38b14610151578063f856d6051461017a57610086565b80633ccfd60b146100885780636c11bcd31461009f578063715018a6146100c85780638da5cb5b146100df57610086565b3661008657005b005b34801561009457600080fd5b5061009d6101a5565b005b3480156100ab57600080fd5b506100c660048036038101906100c19190610aae565b6102a5565b005b3480156100d457600080fd5b506100dd6105be565b005b3480156100eb57600080fd5b506100f46105d2565b6040516101019190610b1c565b60405180910390f35b6101126105fb565b60405161011f9190610b46565b60405180910390f35b34801561013457600080fd5b5061014f600480360381019061014a9190610b8d565b61085c565b005b34801561015d57600080fd5b5061017860048036038101906101739190610b8d565b6108a0565b005b34801561018657600080fd5b5061018f610923565b60405161019c9190610b46565b60405180910390f35b6101ad610929565b6000479050600081116101f5576040517f08c379a00000000000000000000000000000000000000000000000000000000081526004016101ec90610c17565b60405180910390fd5b60003373ffffffffffffffffffffffffffffffffffffffff164760405161021b90610c68565b60006040518083038185875af1925050503d8060008114610258576040519150601f19603f3d011682016040523d82523d6000602084013e61025d565b606091505b50509050806102a1576040517f08c379a000000000000000000000000000000000000000000000000000000000815260040161029890610cc9565b60405180910390fd5b5050565b600081116102e8576040517f08c379a00000000000000000000000000000000000000000000000000000000081526004016102df90610d5b565b60405180910390fd5b6000600160009054906101000a900473ffffffffffffffffffffffffffffffffffffffff1673ffffffffffffffffffffffffffffffffffffffff166370a08231336040518263ffffffff1660e01b81526004016103459190610b1c565b602060405180830381865afa158015610362573d6000803e3d6000fd5b505050506040513d601f19601f820116820180604052508101906103869190610d90565b9050818110156103cb576040517f08c379a00000000000000000000000000000000000000000000000000000000081526004016103c290610e09565b60405180910390fd5b6000600254836103db9190610e87565b9050600047905081811015610425576040517f08c379a000000000000000000000000000000000000000000000000000000000815260040161041c90610f04565b60405180910390fd5b6000600160009054906101000a900473ffffffffffffffffffffffffffffffffffffffff1673ffffffffffffffffffffffffffffffffffffffff166323b872dd3330886040518463ffffffff1660e01b815260040161048693929190610f24565b6020604051808303816000875af11580156104a5573d6000803e3d6000fd5b505050506040513d601f19601f820116820180604052508101906104c99190610f93565b90508061050b576040517f08c379a000000000000000000000000000000000000000000000000000000000815260040161050290611032565b60405180910390fd5b3373ffffffffffffffffffffffffffffffffffffffff168360405161052f90610c68565b60006040518083038185875af1925050503d806000811461056c576040519150601f19603f3d011682016040523d82523d6000602084013e610571565b606091505b505080915050806105b7576040517f08c379a00000000000000000000000000000000000000000000000000000000081526004016105ae9061109e565b60405180910390fd5b5050505050565b6105c6610929565b6105d060006109a7565b565b60008060009054906101000a900473ffffffffffffffffffffffffffffffffffffffff16905090565b600080341161063f576040517f08c379a000000000000000000000000000000000000000000000000000000000815260040161063690611130565b60405180910390fd5b60006002543461064f9190611150565b90506000600160009054906101000a900473ffffffffffffffffffffffffffffffffffffffff1673ffffffffffffffffffffffffffffffffffffffff166370a08231306040518263ffffffff1660e01b81526004016106ae9190610b1c565b602060405180830381865afa1580156106cb573d6000803e3d6000fd5b505050506040513d601f19601f820116820180604052508101906106ef9190610d90565b905081811015610734576040517f08c379a000000000000000000000000000000000000000000000000000000000815260040161072b906111de565b60405180910390fd5b6000600160009054906101000a900473ffffffffffffffffffffffffffffffffffffffff1673ffffffffffffffffffffffffffffffffffffffff1663a9059cbb33856040518363ffffffff1660e01b81526004016107939291906111fe565b6020604051808303816000875af11580156107b2573d6000803e3d6000fd5b505050506040513d601f19601f820116820180604052508101906107d69190610f93565b905080610818576040517f08c379a000000000000000000000000000000000000000000000000000000000815260040161080f90611273565b60405180910390fd5b7f0a37b72bb67eee30e09084cf386f8a17817c57f620c3ab95fb25d6a20356ec7733348560405161084b93929190611293565b60405180910390a182935050505090565b80600160006101000a81548173ffffffffffffffffffffffffffffffffffffffff021916908373ffffffffffffffffffffffffffffffffffffffff16021790555050565b6108a8610929565b600073ffffffffffffffffffffffffffffffffffffffff168173ffffffffffffffffffffffffffffffffffffffff1603610917576040517f08c379a000000000000000000000000000000000000000000000000000000000815260040161090e9061133c565b60405180910390fd5b610920816109a7565b50565b60025481565b610931610a6b565b73ffffffffffffffffffffffffffffffffffffffff1661094f6105d2565b73ffffffffffffffffffffffffffffffffffffffff16146109a5576040517f08c379a000000000000000000000000000000000000000000000000000000000815260040161099c906113a8565b60405180910390fd5b565b60008060009054906101000a900473ffffffffffffffffffffffffffffffffffffffff169050816000806101000a81548173ffffffffffffffffffffffffffffffffffffffff021916908373ffffffffffffffffffffffffffffffffffffffff1602179055508173ffffffffffffffffffffffffffffffffffffffff168173ffffffffffffffffffffffffffffffffffffffff167f8be0079c531659141344cd1fd0a4f28419497f9722a3daafe3b4186f6b6457e060405160405180910390a35050565b600033905090565b600080fd5b6000819050919050565b610a8b81610a78565b8114610a9657600080fd5b50565b600081359050610aa881610a82565b92915050565b600060208284031215610ac457610ac3610a73565b5b6000610ad284828501610a99565b91505092915050565b600073ffffffffffffffffffffffffffffffffffffffff82169050919050565b6000610b0682610adb565b9050919050565b610b1681610afb565b82525050565b6000602082019050610b316000830184610b0d565b92915050565b610b4081610a78565b82525050565b6000602082019050610b5b6000830184610b37565b92915050565b610b6a81610afb565b8114610b7557600080fd5b50565b600081359050610b8781610b61565b92915050565b600060208284031215610ba357610ba2610a73565b5b6000610bb184828501610b78565b91505092915050565b600082825260208201905092915050565b7f4e6f2045746865722070726573656e7420696e2056656e646f72000000000000600082015250565b6000610c01601a83610bba565b9150610c0c82610bcb565b602082019050919050565b60006020820190508181036000830152610c3081610bf4565b9050919050565b600081905092915050565b50565b6000610c52600083610c37565b9150610c5d82610c42565b600082019050919050565b6000610c7382610c45565b9150819050919050565b7f4661696c656420746f2077697468647261770000000000000000000000000000600082015250565b6000610cb3601283610bba565b9150610cbe82610c7d565b602082019050919050565b60006020820190508181036000830152610ce281610ca6565b9050919050565b7f5370656369667920616e20616d6f756e74206f6620746f6b656e20677265617460008201527f6572207468616e207a65726f0000000000000000000000000000000000000000602082015250565b6000610d45602c83610bba565b9150610d5082610ce9565b604082019050919050565b60006020820190508181036000830152610d7481610d38565b9050919050565b600081519050610d8a81610a82565b92915050565b600060208284031215610da657610da5610a73565b5b6000610db484828501610d7b565b91505092915050565b7f596f75206861766520696e73756666696369656e7420746f6b656e7300000000600082015250565b6000610df3601c83610bba565b9150610dfe82610dbd565b602082019050919050565b60006020820190508181036000830152610e2281610de6565b9050919050565b7f4e487b7100000000000000000000000000000000000000000000000000000000600052601260045260246000fd5b7f4e487b7100000000000000000000000000000000000000000000000000000000600052601160045260246000fd5b6000610e9282610a78565b9150610e9d83610a78565b925082610ead57610eac610e29565b5b828204905092915050565b7f56656e646f722068617320696e73756666696369656e742066756e6473000000600082015250565b6000610eee601d83610bba565b9150610ef982610eb8565b602082019050919050565b60006020820190508181036000830152610f1d81610ee1565b9050919050565b6000606082019050610f396000830186610b0d565b610f466020830185610b0d565b610f536040830184610b37565b949350505050565b60008115159050919050565b610f7081610f5b565b8114610f7b57600080fd5b50565b600081519050610f8d81610f67565b92915050565b600060208284031215610fa957610fa8610a73565b5b6000610fb784828501610f7e565b91505092915050565b7f4661696c656420746f207472616e7366657220746f6b656e732066726f6d207560008201527f73657220746f2076656e646f7200000000000000000000000000000000000000602082015250565b600061101c602d83610bba565b915061102782610fc0565b604082019050919050565b6000602082019050818103600083015261104b8161100f565b9050919050565b7f4661696c656420746f2073656e6420457468657220746f207468652075736572600082015250565b6000611088602083610bba565b915061109382611052565b602082019050919050565b600060208201905081810360008301526110b78161107b565b9050919050565b7f596f75206e65656420746f2073656e6420736f6d6520455448455220746f207060008201527f726f636565640000000000000000000000000000000000000000000000000000602082015250565b600061111a602683610bba565b9150611125826110be565b604082019050919050565b600060208201905081810360008301526111498161110d565b9050919050565b600061115b82610a78565b915061116683610a78565b925082820261117481610a78565b9150828204841483151761118b5761118a610e58565b5b5092915050565b7f56656e646f722068617320696e73756666696369656e7420746f6b656e730000600082015250565b60006111c8601e83610bba565b91506111d382611192565b602082019050919050565b600060208201905081810360008301526111f7816111bb565b9050919050565b60006040820190506112136000830185610b0d565b6112206020830184610b37565b9392505050565b7f4661696c656420746f207472616e7366657220746f6b656e20746f2075736572600082015250565b600061125d602083610bba565b915061126882611227565b602082019050919050565b6000602082019050818103600083015261128c81611250565b9050919050565b60006060820190506112a86000830186610b0d565b6112b56020830185610b37565b6112c26040830184610b37565b949350505050565b7f4f776e61626c653a206e6577206f776e657220697320746865207a65726f206160008201527f6464726573730000000000000000000000000000000000000000000000000000602082015250565b6000611326602683610bba565b9150611331826112ca565b604082019050919050565b6000602082019050818103600083015261135581611319565b9050919050565b7f4f776e61626c653a2063616c6c6572206973206e6f7420746865206f776e6572600082015250565b6000611392602083610bba565b915061139d8261135c565b602082019050919050565b600060208201905081810360008301526113c181611385565b905091905056fea26469706673582212207a0b29ae4c714634f8bf5c692d984964734957247e1e307b1e2da7017adb1dea64736f6c63430008110033",
  "immutableReferences": {},
  "source": "// SPDX-License-Identifier: Unlicense\npragma solidity >=0.4.22 <0.9.0;\n//pragma solidity ^0.8.4;\n\nimport \"./CarbonCreditToken.sol\";\nimport \"@openzeppelin/contracts/access/Ownable.sol\";\n\ncontract Vendor is Ownable {\n\n    CarbonCreditToken yourToken;\n    uint256 public tokensPerEther = 100; // 100 tokens per 1 Ether\n\n    event BuyTokens(address buyer, uint256 amountOfEther, uint256 amountOfTokens);\n\n    constructor() {\n    }\n\n    function addToken(address tokenAddress) external {\n        yourToken = CarbonCreditToken(tokenAddress);\n    }\n\n\n    function buyTokens() public payable returns (uint256 tokenAmount) {\n        require(msg.value > 0, \"You need to send some ETHER to proceed\");\n\n        uint256 amountToBuy = msg.value * tokensPerEther;\n        uint256 vendorBalance = yourToken.balanceOf(address(this));\n        require(vendorBalance >= amountToBuy, \"Vendor has insufficient tokens\");\n\n        (bool sent) = yourToken.transfer(msg.sender, amountToBuy);\n        require(sent, \"Failed to transfer token to user\");\n\n        emit BuyTokens(msg.sender, msg.value, amountToBuy);\n        return amountToBuy;\n    }\n\n\n    function sellTokens(uint256 tokenAmountToSell) public {\n        require(tokenAmountToSell > 0, \"Specify an amount of token greater than zero\");\n        uint256 userBalance = yourToken.balanceOf(msg.sender);\n\n        require(userBalance >= tokenAmountToSell, \"You have insufficient tokens\");\n        uint256 amountOfEtherToTransfer = tokenAmountToSell / tokensPerEther;\n        uint256 ownerEtherBalance = address(this).balance;\n\n        require(ownerEtherBalance >= amountOfEtherToTransfer, \"Vendor has insufficient funds\");\n        (bool sent) = yourToken.transferFrom(msg.sender, address(this), tokenAmountToSell);\n        require(sent, \"Failed to transfer tokens from user to vendor\");\n\n        (sent,) = msg.sender.call{value : amountOfEtherToTransfer}(\"\");\n        require(sent, \"Failed to send Ether to the user\");\n    }\n    //-------------------------------------------------------------------------------------------------------------\n\n    //only be run by the owner of the contract.\n    //send all the Ether stored in the smart contract into the owners wallet.\n    function withdraw() public onlyOwner {\n        uint256 ownerBalance = address(this).balance;\n        require(ownerBalance > 0, \"No Ether present in Vendor\");\n        (bool sent,) = msg.sender.call{value : address(this).balance}(\"\");\n        require(sent, \"Failed to withdraw\");\n    }\n\n\n    // To allow contract to receive ether\n    fallback() external payable {}\n\n    receive() external payable {}\n}\n",
  "sourcePath": "/Users/tatenda/Projects/Blockchain/Project-Carbon-Otherfrontend/contracts/Vendor.sol",
  "compiler": {
    "name": "solc",
    "version": "0.8.17+commit.8df45f5f.Emscripten.clang"
  },
  "schemaVersion": "3.4.10",
  "updatedAt": "2022-10-11T12:25:28.545Z",
  "devdoc": {
    "kind": "dev",
    "methods": {
      "owner()": {
        "details": "Returns the address of the current owner."
      },
      "renounceOwnership()": {
        "details": "Leaves the contract without owner. It will not be possible to call `onlyOwner` functions anymore. Can only be called by the current owner. NOTE: Renouncing ownership will leave the contract without an owner, thereby removing any functionality that is only available to the owner."
      },
      "transferOwnership(address)": {
        "details": "Transfers ownership of the contract to a new account (`newOwner`). Can only be called by the current owner."
      }
    },
    "version": 1
  },
  "userdoc": {
    "kind": "user",
    "methods": {},
    "version": 1
  }
}